{
    "_format": "hh-sol-artifact-1",
    "contractName": "LendmeFi",
    "sourceName": "contracts/LendmeFi.sol",
    "abi": [
        {
            "inputs": [
                {
                    "internalType": "address",
                    "name": "_weth",
                    "type": "address"
                },
                {
                    "internalType": "address",
                    "name": "_usdc",
                    "type": "address"
                }
            ],
            "stateMutability": "nonpayable",
            "type": "constructor"
        },
        {
            "inputs": [
                {
                    "internalType": "address",
                    "name": "target",
                    "type": "address"
                }
            ],
            "name": "AddressEmptyCode",
            "type": "error"
        },
        {
            "inputs": [
                {
                    "internalType": "address",
                    "name": "account",
                    "type": "address"
                }
            ],
            "name": "AddressInsufficientBalance",
            "type": "error"
        },
        {
            "inputs": [],
            "name": "EnforcedPause",
            "type": "error"
        },
        {
            "inputs": [],
            "name": "ExpectedPause",
            "type": "error"
        },
        {
            "inputs": [],
            "name": "FailedInnerCall",
            "type": "error"
        },
        {
            "inputs": [],
            "name": "InvalidShortString",
            "type": "error"
        },
        {
            "inputs": [
                {
                    "internalType": "address",
                    "name": "owner",
                    "type": "address"
                }
            ],
            "name": "OwnableInvalidOwner",
            "type": "error"
        },
        {
            "inputs": [
                {
                    "internalType": "address",
                    "name": "account",
                    "type": "address"
                }
            ],
            "name": "OwnableUnauthorizedAccount",
            "type": "error"
        },
        {
            "inputs": [],
            "name": "ReentrancyGuardReentrantCall",
            "type": "error"
        },
        {
            "inputs": [
                {
                    "internalType": "address",
                    "name": "token",
                    "type": "address"
                }
            ],
            "name": "SafeERC20FailedOperation",
            "type": "error"
        },
        {
            "inputs": [
                {
                    "internalType": "string",
                    "name": "str",
                    "type": "string"
                }
            ],
            "name": "StringTooLong",
            "type": "error"
        },
        {
            "anonymous": false,
            "inputs": [],
            "name": "EIP712DomainChanged",
            "type": "event"
        },
        {
            "anonymous": false,
            "inputs": [
                {
                    "indexed": false,
                    "internalType": "uint256",
                    "name": "newFee",
                    "type": "uint256"
                }
            ],
            "name": "LendmeFiFeeChanged",
            "type": "event"
        },
        {
            "anonymous": false,
            "inputs": [
                {
                    "indexed": false,
                    "internalType": "uint256",
                    "name": "loanId",
                    "type": "uint256"
                },
                {
                    "indexed": false,
                    "internalType": "address",
                    "name": "borrowerAddress",
                    "type": "address"
                },
                {
                    "indexed": false,
                    "internalType": "address",
                    "name": "lenderAddress",
                    "type": "address"
                },
                {
                    "indexed": false,
                    "internalType": "address",
                    "name": "nftCollateralAddress",
                    "type": "address"
                },
                {
                    "indexed": false,
                    "internalType": "uint256",
                    "name": "nftTokenId",
                    "type": "uint256"
                },
                {
                    "indexed": false,
                    "internalType": "address",
                    "name": "loanTokenAddress",
                    "type": "address"
                },
                {
                    "indexed": false,
                    "internalType": "uint256",
                    "name": "loanAmount",
                    "type": "uint256"
                },
                {
                    "indexed": false,
                    "internalType": "uint256",
                    "name": "interestFee",
                    "type": "uint256"
                },
                {
                    "indexed": false,
                    "internalType": "uint256",
                    "name": "lendmeFiFee",
                    "type": "uint256"
                },
                {
                    "indexed": false,
                    "internalType": "uint256",
                    "name": "loanStartTime",
                    "type": "uint256"
                },
                {
                    "indexed": false,
                    "internalType": "uint256",
                    "name": "loanDuration",
                    "type": "uint256"
                }
            ],
            "name": "LoanLiquidated",
            "type": "event"
        },
        {
            "anonymous": false,
            "inputs": [
                {
                    "indexed": false,
                    "internalType": "uint256",
                    "name": "loanId",
                    "type": "uint256"
                },
                {
                    "indexed": false,
                    "internalType": "address",
                    "name": "borrowerAddress",
                    "type": "address"
                },
                {
                    "indexed": false,
                    "internalType": "address",
                    "name": "lenderAddress",
                    "type": "address"
                },
                {
                    "indexed": false,
                    "internalType": "address",
                    "name": "nftCollateralAddress",
                    "type": "address"
                },
                {
                    "indexed": false,
                    "internalType": "uint256",
                    "name": "nftTokenId",
                    "type": "uint256"
                },
                {
                    "indexed": false,
                    "internalType": "address",
                    "name": "loanTokenAddress",
                    "type": "address"
                },
                {
                    "indexed": false,
                    "internalType": "uint256",
                    "name": "loanAmount",
                    "type": "uint256"
                },
                {
                    "indexed": false,
                    "internalType": "uint256",
                    "name": "interestFee",
                    "type": "uint256"
                },
                {
                    "indexed": false,
                    "internalType": "uint256",
                    "name": "lendmeFiFee",
                    "type": "uint256"
                },
                {
                    "indexed": false,
                    "internalType": "uint256",
                    "name": "loanStartTime",
                    "type": "uint256"
                },
                {
                    "indexed": false,
                    "internalType": "uint256",
                    "name": "loanDuration",
                    "type": "uint256"
                }
            ],
            "name": "LoanRepaid",
            "type": "event"
        },
        {
            "anonymous": false,
            "inputs": [
                {
                    "indexed": false,
                    "internalType": "uint256",
                    "name": "loanId",
                    "type": "uint256"
                },
                {
                    "indexed": false,
                    "internalType": "address",
                    "name": "borrowerAddress",
                    "type": "address"
                },
                {
                    "indexed": false,
                    "internalType": "address",
                    "name": "lenderAddress",
                    "type": "address"
                },
                {
                    "indexed": false,
                    "internalType": "address",
                    "name": "nftCollateralAddress",
                    "type": "address"
                },
                {
                    "indexed": false,
                    "internalType": "uint256",
                    "name": "nftTokenId",
                    "type": "uint256"
                },
                {
                    "indexed": false,
                    "internalType": "address",
                    "name": "loanTokenAddress",
                    "type": "address"
                },
                {
                    "indexed": false,
                    "internalType": "uint256",
                    "name": "loanAmount",
                    "type": "uint256"
                },
                {
                    "indexed": false,
                    "internalType": "uint256",
                    "name": "interestFee",
                    "type": "uint256"
                },
                {
                    "indexed": false,
                    "internalType": "uint256",
                    "name": "lendmeFiFee",
                    "type": "uint256"
                },
                {
                    "indexed": false,
                    "internalType": "uint256",
                    "name": "loanStartTime",
                    "type": "uint256"
                },
                {
                    "indexed": false,
                    "internalType": "uint256",
                    "name": "loanDuration",
                    "type": "uint256"
                }
            ],
            "name": "LoanStarted",
            "type": "event"
        },
        {
            "anonymous": false,
            "inputs": [
                {
                    "indexed": true,
                    "internalType": "address",
                    "name": "previousOwner",
                    "type": "address"
                },
                {
                    "indexed": true,
                    "internalType": "address",
                    "name": "newOwner",
                    "type": "address"
                }
            ],
            "name": "OwnershipTransferred",
            "type": "event"
        },
        {
            "anonymous": false,
            "inputs": [
                {
                    "indexed": false,
                    "internalType": "address",
                    "name": "account",
                    "type": "address"
                }
            ],
            "name": "Paused",
            "type": "event"
        },
        {
            "anonymous": false,
            "inputs": [
                {
                    "indexed": false,
                    "internalType": "address",
                    "name": "account",
                    "type": "address"
                }
            ],
            "name": "Unpaused",
            "type": "event"
        },
        {
            "stateMutability": "payable",
            "type": "fallback"
        },
        {
            "inputs": [
                {
                    "internalType": "uint256",
                    "name": "loanAmount",
                    "type": "uint256"
                },
                {
                    "internalType": "uint256",
                    "name": "feeBasisPoints",
                    "type": "uint256"
                }
            ],
            "name": "calculateLendmeFiFee",
            "outputs": [
                {
                    "internalType": "uint256",
                    "name": "",
                    "type": "uint256"
                }
            ],
            "stateMutability": "pure",
            "type": "function"
        },
        {
            "inputs": [
                {
                    "internalType": "uint256",
                    "name": "loanStartTime",
                    "type": "uint256"
                },
                {
                    "internalType": "uint256",
                    "name": "loanDuration",
                    "type": "uint256"
                }
            ],
            "name": "calculateLoanEndTime",
            "outputs": [
                {
                    "internalType": "uint256",
                    "name": "",
                    "type": "uint256"
                }
            ],
            "stateMutability": "pure",
            "type": "function"
        },
        {
            "inputs": [
                {
                    "internalType": "uint256",
                    "name": "loanAmount",
                    "type": "uint256"
                },
                {
                    "internalType": "uint256",
                    "name": "interestFee",
                    "type": "uint256"
                }
            ],
            "name": "calculateRepaymentAmount",
            "outputs": [
                {
                    "internalType": "uint256",
                    "name": "",
                    "type": "uint256"
                }
            ],
            "stateMutability": "pure",
            "type": "function"
        },
        {
            "inputs": [
                {
                    "internalType": "uint256",
                    "name": "loanAmount",
                    "type": "uint256"
                },
                {
                    "internalType": "uint256",
                    "name": "interestFee",
                    "type": "uint256"
                },
                {
                    "internalType": "uint256",
                    "name": "lendmeFiFeeBasisPoint",
                    "type": "uint256"
                }
            ],
            "name": "calculateTotalRepaymentAmount",
            "outputs": [
                {
                    "internalType": "uint256",
                    "name": "",
                    "type": "uint256"
                }
            ],
            "stateMutability": "pure",
            "type": "function"
        },
        {
            "inputs": [
                {
                    "internalType": "uint256",
                    "name": "_nonce",
                    "type": "uint256"
                }
            ],
            "name": "cancelSignatureBeforeLoanStart",
            "outputs": [],
            "stateMutability": "nonpayable",
            "type": "function"
        },
        {
            "inputs": [],
            "name": "eip712Domain",
            "outputs": [
                {
                    "internalType": "bytes1",
                    "name": "fields",
                    "type": "bytes1"
                },
                {
                    "internalType": "string",
                    "name": "name",
                    "type": "string"
                },
                {
                    "internalType": "string",
                    "name": "version",
                    "type": "string"
                },
                {
                    "internalType": "uint256",
                    "name": "chainId",
                    "type": "uint256"
                },
                {
                    "internalType": "address",
                    "name": "verifyingContract",
                    "type": "address"
                },
                {
                    "internalType": "bytes32",
                    "name": "salt",
                    "type": "bytes32"
                },
                {
                    "internalType": "uint256[]",
                    "name": "extensions",
                    "type": "uint256[]"
                }
            ],
            "stateMutability": "view",
            "type": "function"
        },
        {
            "inputs": [
                {
                    "internalType": "address",
                    "name": "",
                    "type": "address"
                }
            ],
            "name": "erc20whitelist",
            "outputs": [
                {
                    "internalType": "bool",
                    "name": "",
                    "type": "bool"
                }
            ],
            "stateMutability": "view",
            "type": "function"
        },
        {
            "inputs": [
                {
                    "internalType": "address",
                    "name": "",
                    "type": "address"
                }
            ],
            "name": "erc721whitelist",
            "outputs": [
                {
                    "internalType": "bool",
                    "name": "",
                    "type": "bool"
                }
            ],
            "stateMutability": "view",
            "type": "function"
        },
        {
            "inputs": [
                {
                    "components": [
                        {
                            "internalType": "address",
                            "name": "borrowerAddress",
                            "type": "address"
                        },
                        {
                            "internalType": "uint256",
                            "name": "borrowerNonce",
                            "type": "uint256"
                        },
                        {
                            "internalType": "address",
                            "name": "nftCollateralAddress",
                            "type": "address"
                        },
                        {
                            "internalType": "uint256",
                            "name": "nftTokenId",
                            "type": "uint256"
                        },
                        {
                            "internalType": "address",
                            "name": "loanTokenAddress",
                            "type": "address"
                        },
                        {
                            "internalType": "uint256",
                            "name": "loanAmount",
                            "type": "uint256"
                        },
                        {
                            "internalType": "uint256",
                            "name": "interestFee",
                            "type": "uint256"
                        },
                        {
                            "internalType": "uint256",
                            "name": "loanDuration",
                            "type": "uint256"
                        }
                    ],
                    "internalType": "struct EIP712SignMessage.BorrowerData",
                    "name": "data",
                    "type": "tuple"
                }
            ],
            "name": "getBorrowerMessageHash",
            "outputs": [
                {
                    "internalType": "bytes32",
                    "name": "",
                    "type": "bytes32"
                }
            ],
            "stateMutability": "view",
            "type": "function"
        },
        {
            "inputs": [],
            "name": "getCurrentTimestamp",
            "outputs": [
                {
                    "internalType": "uint256",
                    "name": "",
                    "type": "uint256"
                }
            ],
            "stateMutability": "view",
            "type": "function"
        },
        {
            "inputs": [
                {
                    "components": [
                        {
                            "internalType": "address",
                            "name": "lenderAddress",
                            "type": "address"
                        },
                        {
                            "internalType": "uint256",
                            "name": "lenderNonce",
                            "type": "uint256"
                        },
                        {
                            "internalType": "address",
                            "name": "nftCollateralAddress",
                            "type": "address"
                        },
                        {
                            "internalType": "uint256",
                            "name": "nftTokenId",
                            "type": "uint256"
                        },
                        {
                            "internalType": "address",
                            "name": "loanTokenAddress",
                            "type": "address"
                        },
                        {
                            "internalType": "uint256",
                            "name": "loanAmount",
                            "type": "uint256"
                        },
                        {
                            "internalType": "uint256",
                            "name": "interestFee",
                            "type": "uint256"
                        },
                        {
                            "internalType": "uint256",
                            "name": "loanDuration",
                            "type": "uint256"
                        }
                    ],
                    "internalType": "struct EIP712SignMessage.LenderData",
                    "name": "data",
                    "type": "tuple"
                }
            ],
            "name": "getLenderMessageHash",
            "outputs": [
                {
                    "internalType": "bytes32",
                    "name": "",
                    "type": "bytes32"
                }
            ],
            "stateMutability": "view",
            "type": "function"
        },
        {
            "inputs": [
                {
                    "internalType": "uint256",
                    "name": "loanStartTime",
                    "type": "uint256"
                },
                {
                    "internalType": "uint256",
                    "name": "loanDuration",
                    "type": "uint256"
                }
            ],
            "name": "isLoanTimeOver",
            "outputs": [
                {
                    "internalType": "bool",
                    "name": "",
                    "type": "bool"
                }
            ],
            "stateMutability": "view",
            "type": "function"
        },
        {
            "inputs": [],
            "name": "lendmeFiFeeBasisPoint",
            "outputs": [
                {
                    "internalType": "uint256",
                    "name": "",
                    "type": "uint256"
                }
            ],
            "stateMutability": "view",
            "type": "function"
        },
        {
            "inputs": [
                {
                    "internalType": "uint256",
                    "name": "_loanId",
                    "type": "uint256"
                }
            ],
            "name": "liquidateLoan",
            "outputs": [],
            "stateMutability": "nonpayable",
            "type": "function"
        },
        {
            "inputs": [
                {
                    "internalType": "uint256",
                    "name": "",
                    "type": "uint256"
                }
            ],
            "name": "loanStatus",
            "outputs": [
                {
                    "internalType": "enum LendmeFi.LoanStatus",
                    "name": "",
                    "type": "uint8"
                }
            ],
            "stateMutability": "view",
            "type": "function"
        },
        {
            "inputs": [
                {
                    "internalType": "uint256",
                    "name": "",
                    "type": "uint256"
                }
            ],
            "name": "loans",
            "outputs": [
                {
                    "internalType": "uint256",
                    "name": "loanId",
                    "type": "uint256"
                },
                {
                    "internalType": "address",
                    "name": "borrowerAddress",
                    "type": "address"
                },
                {
                    "internalType": "address",
                    "name": "lenderAddress",
                    "type": "address"
                },
                {
                    "internalType": "address",
                    "name": "nftCollateralAddress",
                    "type": "address"
                },
                {
                    "internalType": "uint256",
                    "name": "nftTokenId",
                    "type": "uint256"
                },
                {
                    "internalType": "address",
                    "name": "loanTokenAddress",
                    "type": "address"
                },
                {
                    "internalType": "uint256",
                    "name": "loanAmount",
                    "type": "uint256"
                },
                {
                    "internalType": "uint256",
                    "name": "interestFee",
                    "type": "uint256"
                },
                {
                    "internalType": "uint256",
                    "name": "lendmeFiFee",
                    "type": "uint256"
                },
                {
                    "internalType": "uint256",
                    "name": "loanStartTime",
                    "type": "uint256"
                },
                {
                    "internalType": "uint256",
                    "name": "loanDuration",
                    "type": "uint256"
                }
            ],
            "stateMutability": "view",
            "type": "function"
        },
        {
            "inputs": [],
            "name": "numberofActiveLoans",
            "outputs": [
                {
                    "internalType": "uint256",
                    "name": "",
                    "type": "uint256"
                }
            ],
            "stateMutability": "view",
            "type": "function"
        },
        {
            "inputs": [],
            "name": "numberofTotalLoans",
            "outputs": [
                {
                    "internalType": "uint256",
                    "name": "",
                    "type": "uint256"
                }
            ],
            "stateMutability": "view",
            "type": "function"
        },
        {
            "inputs": [
                {
                    "internalType": "address",
                    "name": "",
                    "type": "address"
                },
                {
                    "internalType": "address",
                    "name": "",
                    "type": "address"
                },
                {
                    "internalType": "uint256",
                    "name": "",
                    "type": "uint256"
                },
                {
                    "internalType": "bytes",
                    "name": "",
                    "type": "bytes"
                }
            ],
            "name": "onERC721Received",
            "outputs": [
                {
                    "internalType": "bytes4",
                    "name": "",
                    "type": "bytes4"
                }
            ],
            "stateMutability": "nonpayable",
            "type": "function"
        },
        {
            "inputs": [],
            "name": "owner",
            "outputs": [
                {
                    "internalType": "address",
                    "name": "",
                    "type": "address"
                }
            ],
            "stateMutability": "view",
            "type": "function"
        },
        {
            "inputs": [],
            "name": "pause",
            "outputs": [],
            "stateMutability": "nonpayable",
            "type": "function"
        },
        {
            "inputs": [],
            "name": "paused",
            "outputs": [
                {
                    "internalType": "bool",
                    "name": "",
                    "type": "bool"
                }
            ],
            "stateMutability": "view",
            "type": "function"
        },
        {
            "inputs": [],
            "name": "renounceOwnership",
            "outputs": [],
            "stateMutability": "nonpayable",
            "type": "function"
        },
        {
            "inputs": [
                {
                    "internalType": "uint256",
                    "name": "_loanId",
                    "type": "uint256"
                }
            ],
            "name": "repayLoan",
            "outputs": [],
            "stateMutability": "nonpayable",
            "type": "function"
        },
        {
            "inputs": [
                {
                    "internalType": "address",
                    "name": "_token",
                    "type": "address"
                },
                {
                    "internalType": "bool",
                    "name": "_status",
                    "type": "bool"
                }
            ],
            "name": "setERC20Whitelist",
            "outputs": [],
            "stateMutability": "nonpayable",
            "type": "function"
        },
        {
            "inputs": [
                {
                    "internalType": "address",
                    "name": "_token",
                    "type": "address"
                },
                {
                    "internalType": "bool",
                    "name": "_status",
                    "type": "bool"
                }
            ],
            "name": "setERC721Whitelist",
            "outputs": [],
            "stateMutability": "nonpayable",
            "type": "function"
        },
        {
            "inputs": [
                {
                    "internalType": "uint256",
                    "name": "_fee",
                    "type": "uint256"
                }
            ],
            "name": "setLendmefiFee",
            "outputs": [],
            "stateMutability": "nonpayable",
            "type": "function"
        },
        {
            "inputs": [
                {
                    "internalType": "uint256",
                    "name": "_borrowerNonce",
                    "type": "uint256"
                },
                {
                    "internalType": "address",
                    "name": "_lenderAddress",
                    "type": "address"
                },
                {
                    "internalType": "uint256",
                    "name": "_lenderNonce",
                    "type": "uint256"
                },
                {
                    "internalType": "address",
                    "name": "_nftCollateralAddress",
                    "type": "address"
                },
                {
                    "internalType": "uint256",
                    "name": "_nftTokenId",
                    "type": "uint256"
                },
                {
                    "internalType": "address",
                    "name": "_loanTokenAddress",
                    "type": "address"
                },
                {
                    "internalType": "uint256",
                    "name": "_loanAmount",
                    "type": "uint256"
                },
                {
                    "internalType": "uint256",
                    "name": "_interestFee",
                    "type": "uint256"
                },
                {
                    "internalType": "uint256",
                    "name": "_loanDuration",
                    "type": "uint256"
                },
                {
                    "internalType": "bytes",
                    "name": "_borrowerSignature",
                    "type": "bytes"
                },
                {
                    "internalType": "bytes",
                    "name": "_lenderSignature",
                    "type": "bytes"
                }
            ],
            "name": "startLoanByOffer",
            "outputs": [],
            "stateMutability": "nonpayable",
            "type": "function"
        },
        {
            "inputs": [
                {
                    "internalType": "address",
                    "name": "_borrowerAddress",
                    "type": "address"
                },
                {
                    "internalType": "uint256",
                    "name": "_borrowerNonce",
                    "type": "uint256"
                },
                {
                    "internalType": "uint256",
                    "name": "_lenderNonce",
                    "type": "uint256"
                },
                {
                    "internalType": "address",
                    "name": "_nftCollateralAddress",
                    "type": "address"
                },
                {
                    "internalType": "uint256",
                    "name": "_nftTokenId",
                    "type": "uint256"
                },
                {
                    "internalType": "address",
                    "name": "_loanTokenAddress",
                    "type": "address"
                },
                {
                    "internalType": "uint256",
                    "name": "_loanAmount",
                    "type": "uint256"
                },
                {
                    "internalType": "uint256",
                    "name": "_interestFee",
                    "type": "uint256"
                },
                {
                    "internalType": "uint256",
                    "name": "_loanDuration",
                    "type": "uint256"
                },
                {
                    "internalType": "bytes",
                    "name": "_borrowerSignature",
                    "type": "bytes"
                }
            ],
            "name": "startLoanDirectly",
            "outputs": [],
            "stateMutability": "nonpayable",
            "type": "function"
        },
        {
            "inputs": [
                {
                    "internalType": "address",
                    "name": "newOwner",
                    "type": "address"
                }
            ],
            "name": "transferOwnership",
            "outputs": [],
            "stateMutability": "nonpayable",
            "type": "function"
        },
        {
            "inputs": [],
            "name": "unpause",
            "outputs": [],
            "stateMutability": "nonpayable",
            "type": "function"
        },
        {
            "inputs": [
                {
                    "components": [
                        {
                            "internalType": "address",
                            "name": "borrowerAddress",
                            "type": "address"
                        },
                        {
                            "internalType": "uint256",
                            "name": "borrowerNonce",
                            "type": "uint256"
                        },
                        {
                            "internalType": "address",
                            "name": "nftCollateralAddress",
                            "type": "address"
                        },
                        {
                            "internalType": "uint256",
                            "name": "nftTokenId",
                            "type": "uint256"
                        },
                        {
                            "internalType": "address",
                            "name": "loanTokenAddress",
                            "type": "address"
                        },
                        {
                            "internalType": "uint256",
                            "name": "loanAmount",
                            "type": "uint256"
                        },
                        {
                            "internalType": "uint256",
                            "name": "interestFee",
                            "type": "uint256"
                        },
                        {
                            "internalType": "uint256",
                            "name": "loanDuration",
                            "type": "uint256"
                        }
                    ],
                    "internalType": "struct EIP712SignMessage.BorrowerData",
                    "name": "data",
                    "type": "tuple"
                },
                {
                    "internalType": "bytes",
                    "name": "signature",
                    "type": "bytes"
                }
            ],
            "name": "verifyBorrowerSignature",
            "outputs": [
                {
                    "internalType": "bool",
                    "name": "",
                    "type": "bool"
                }
            ],
            "stateMutability": "view",
            "type": "function"
        },
        {
            "inputs": [
                {
                    "components": [
                        {
                            "internalType": "address",
                            "name": "lenderAddress",
                            "type": "address"
                        },
                        {
                            "internalType": "uint256",
                            "name": "lenderNonce",
                            "type": "uint256"
                        },
                        {
                            "internalType": "address",
                            "name": "nftCollateralAddress",
                            "type": "address"
                        },
                        {
                            "internalType": "uint256",
                            "name": "nftTokenId",
                            "type": "uint256"
                        },
                        {
                            "internalType": "address",
                            "name": "loanTokenAddress",
                            "type": "address"
                        },
                        {
                            "internalType": "uint256",
                            "name": "loanAmount",
                            "type": "uint256"
                        },
                        {
                            "internalType": "uint256",
                            "name": "interestFee",
                            "type": "uint256"
                        },
                        {
                            "internalType": "uint256",
                            "name": "loanDuration",
                            "type": "uint256"
                        }
                    ],
                    "internalType": "struct EIP712SignMessage.LenderData",
                    "name": "data",
                    "type": "tuple"
                },
                {
                    "internalType": "bytes",
                    "name": "signature",
                    "type": "bytes"
                }
            ],
            "name": "verifyLenderSignature",
            "outputs": [
                {
                    "internalType": "bool",
                    "name": "",
                    "type": "bool"
                }
            ],
            "stateMutability": "view",
            "type": "function"
        },
        {
            "stateMutability": "payable",
            "type": "receive"
        }
    ],
    "bytecode": "0x61016060405260c86004556000600a556000600b553480156200002157600080fd5b506040516200588038038062005880833981810160405281019062000047919062000522565b6040518060400160405280600881526020017f4c656e646d6546690000000000000000000000000000000000000000000000008152506040518060400160405280600181526020017f3100000000000000000000000000000000000000000000000000000000000000815250838333600073ffffffffffffffffffffffffffffffffffffffff168173ffffffffffffffffffffffffffffffffffffffff16036200012b5760006040517f1e4fbdf70000000000000000000000000000000000000000000000000000000081526004016200012291906200057a565b60405180910390fd5b6200013c81620002c860201b60201c565b5060008060146101000a81548160ff021916908315150217905550600180819055506001600260008473ffffffffffffffffffffffffffffffffffffffff1673ffffffffffffffffffffffffffffffffffffffff16815260200190815260200160002060006101000a81548160ff0219169083151502179055506001600260008373ffffffffffffffffffffffffffffffffffffffff1673ffffffffffffffffffffffffffffffffffffffff16815260200190815260200160002060006101000a81548160ff0219169083151502179055505050620002266005836200038c60201b90919060201c565b6101208181525050620002446006826200038c60201b90919060201c565b6101408181525050818051906020012060e08181525050808051906020012061010081815250504660a0818152505062000283620003e460201b60201c565b608081815250503073ffffffffffffffffffffffffffffffffffffffff1660c08173ffffffffffffffffffffffffffffffffffffffff16815250505050505062000ad6565b60008060009054906101000a900473ffffffffffffffffffffffffffffffffffffffff169050816000806101000a81548173ffffffffffffffffffffffffffffffffffffffff021916908373ffffffffffffffffffffffffffffffffffffffff1602179055508173ffffffffffffffffffffffffffffffffffffffff168173ffffffffffffffffffffffffffffffffffffffff167f8be0079c531659141344cd1fd0a4f28419497f9722a3daafe3b4186f6b6457e060405160405180910390a35050565b6000602083511015620003b257620003aa836200044160201b60201c565b9050620003de565b82620003c483620004ae60201b60201c565b6000019081620003d5919062000811565b5060ff60001b90505b92915050565b60007f8b73c3c69bb8fe3d512ecc4cf759cc79239f7b179b0ffacaa9a75d522b39400f60e0516101005146306040516020016200042695949392919062000924565b60405160208183030381529060405280519060200120905090565b600080829050601f815111156200049157826040517f305a27a900000000000000000000000000000000000000000000000000000000815260040162000488919062000a10565b60405180910390fd5b8051816200049f9062000a66565b60001c1760001b915050919050565b6000819050919050565b600080fd5b600073ffffffffffffffffffffffffffffffffffffffff82169050919050565b6000620004ea82620004bd565b9050919050565b620004fc81620004dd565b81146200050857600080fd5b50565b6000815190506200051c81620004f1565b92915050565b600080604083850312156200053c576200053b620004b8565b5b60006200054c858286016200050b565b92505060206200055f858286016200050b565b9150509250929050565b6200057481620004dd565b82525050565b600060208201905062000591600083018462000569565b92915050565b600081519050919050565b7f4e487b7100000000000000000000000000000000000000000000000000000000600052604160045260246000fd5b7f4e487b7100000000000000000000000000000000000000000000000000000000600052602260045260246000fd5b600060028204905060018216806200061957607f821691505b6020821081036200062f576200062e620005d1565b5b50919050565b60008190508160005260206000209050919050565b60006020601f8301049050919050565b600082821b905092915050565b600060088302620006997fffffffffffffffffffffffffffffffffffffffffffffffffffffffffffffffff826200065a565b620006a586836200065a565b95508019841693508086168417925050509392505050565b6000819050919050565b6000819050919050565b6000620006f2620006ec620006e684620006bd565b620006c7565b620006bd565b9050919050565b6000819050919050565b6200070e83620006d1565b620007266200071d82620006f9565b84845462000667565b825550505050565b600090565b6200073d6200072e565b6200074a81848462000703565b505050565b5b8181101562000772576200076660008262000733565b60018101905062000750565b5050565b601f821115620007c1576200078b8162000635565b62000796846200064a565b81016020851015620007a6578190505b620007be620007b5856200064a565b8301826200074f565b50505b505050565b600082821c905092915050565b6000620007e660001984600802620007c6565b1980831691505092915050565b6000620008018383620007d3565b9150826002028217905092915050565b6200081c8262000597565b67ffffffffffffffff811115620008385762000837620005a2565b5b62000844825462000600565b6200085182828562000776565b600060209050601f83116001811462000889576000841562000874578287015190505b620008808582620007f3565b865550620008f0565b601f198416620008998662000635565b60005b82811015620008c3578489015182556001820191506020850194506020810190506200089c565b86831015620008e35784890151620008df601f891682620007d3565b8355505b6001600288020188555050505b505050505050565b6000819050919050565b6200090d81620008f8565b82525050565b6200091e81620006bd565b82525050565b600060a0820190506200093b600083018862000902565b6200094a602083018762000902565b62000959604083018662000902565b62000968606083018562000913565b62000977608083018462000569565b9695505050505050565b600082825260208201905092915050565b60005b83811015620009b257808201518184015260208101905062000995565b60008484015250505050565b6000601f19601f8301169050919050565b6000620009dc8262000597565b620009e8818562000981565b9350620009fa81856020860162000992565b62000a0581620009be565b840191505092915050565b6000602082019050818103600083015262000a2c8184620009cf565b905092915050565b600081519050919050565b6000819050602082019050919050565b600062000a5d8251620008f8565b80915050919050565b600062000a738262000a34565b8262000a7f8462000a3f565b905062000a8c8162000a4f565b9250602082101562000acf5762000aca7fffffffffffffffffffffffffffffffffffffffffffffffffffffffffffffffff836020036008026200065a565b831692505b5050919050565b60805160a05160c05160e051610100516101205161014051614d4f62000b316000396000612d8901526000612d4e0152600061321e015260006131fd01526000612e9e01526000612ef401526000612f1d0152614d4f6000f3fe6080604052600436106101f25760003560e01c806384b0196e1161010d578063c2d7218d116100a0578063e4bd1c281161006f578063e4bd1c281461072d578063e50380e01461076a578063e75d9102146107a7578063eaa8d5a2146107e4578063f2fde38b14610821576101fc565b8063c2d7218d14610657578063ccdd9f5d14610680578063dcc9e14e146106a9578063e1ec3c68146106e6576101fc565b8063a9282d14116100dc578063a9282d14146105b1578063ab78cf33146105dc578063ab7b1c8914610605578063b2cc2d621461062e576101fc565b806384b0196e146104ed5780638b6d4f8b1461051e5780638da5cb5b1461055b5780639ddc800214610586576101fc565b80636814e6651161018557806374410fe01161015457806374410fe014610433578063774ae840146104705780637c491f77146104ad5780638456cb59146104d6576101fc565b80636814e6651461037757806369f5c70e146103b45780636c9230db146103f1578063715018a61461041c576101fc565b806347fd12ad116101c157806347fd12ad146102bb57806352cfba86146102f85780635c975abb146103215780635e7a04951461034c576101fc565b8063150b7a0214610201578063208c61b21461023e5780632f5aaca9146102675780633f4ba83a146102a4576101fc565b366101fc57600080fd5b600080fd5b34801561020d57600080fd5b50610228600480360381019061022391906137b5565b61084a565b6040516102359190613873565b60405180910390f35b34801561024a57600080fd5b506102656004803603810190610260919061388e565b61085e565b005b34801561027357600080fd5b5061028e60048036038101906102899190613989565b610f4d565b60405161029b91906139d8565b60405180910390f35b3480156102b057600080fd5b506102b9610f63565b005b3480156102c757600080fd5b506102e260048036038101906102dd9190613ac2565b610f75565b6040516102ef9190613b09565b60405180910390f35b34801561030457600080fd5b5061031f600480360381019061031a9190613b5c565b610ffd565b005b34801561032d57600080fd5b50610336611060565b6040516103439190613bab565b60405180910390f35b34801561035857600080fd5b50610361611076565b60405161036e91906139d8565b60405180910390f35b34801561038357600080fd5b5061039e60048036038101906103999190613c90565b61107c565b6040516103ab9190613bab565b60405180910390f35b3480156103c057600080fd5b506103db60048036038101906103d69190613cee565b6110a2565b6040516103e89190613b09565b60405180910390f35b3480156103fd57600080fd5b5061040661112a565b60405161041391906139d8565b60405180910390f35b34801561042857600080fd5b50610431611132565b005b34801561043f57600080fd5b5061045a60048036038101906104559190613d1c565b611146565b6040516104679190613bab565b60405180910390f35b34801561047c57600080fd5b5061049760048036038101906104929190613d49565b611166565b6040516104a491906139d8565b60405180910390f35b3480156104b957600080fd5b506104d460048036038101906104cf9190613d9c565b611196565b005b3480156104e257600080fd5b506104eb6111df565b005b3480156104f957600080fd5b506105026111f1565b6040516105159796959493929190613f50565b60405180910390f35b34801561052a57600080fd5b5061054560048036038101906105409190613d1c565b61129b565b6040516105529190613bab565b60405180910390f35b34801561056757600080fd5b506105706112bb565b60405161057d9190613fd4565b60405180910390f35b34801561059257600080fd5b5061059b6112e4565b6040516105a891906139d8565b60405180910390f35b3480156105bd57600080fd5b506105c66112ea565b6040516105d391906139d8565b60405180910390f35b3480156105e857600080fd5b5061060360048036038101906105fe9190613b5c565b6112f0565b005b34801561061157600080fd5b5061062c60048036038101906106279190613d9c565b611353565b005b34801561063a57600080fd5b5061065560048036038101906106509190613fef565b611939565b005b34801561066357600080fd5b5061067e60048036038101906106799190613d9c565b61210e565b005b34801561068c57600080fd5b506106a760048036038101906106a29190613d9c565b61211c565b005b3480156106b557600080fd5b506106d060048036038101906106cb9190613d9c565b612670565b6040516106dd9190614192565b60405180910390f35b3480156106f257600080fd5b5061070d60048036038101906107089190613d9c565b612690565b6040516107249b9a999897969594939291906141ad565b60405180910390f35b34801561073957600080fd5b50610754600480360381019061074f9190614258565b61276a565b6040516107619190613bab565b60405180910390f35b34801561077657600080fd5b50610791600480360381019061078c9190613989565b612790565b60405161079e91906139d8565b60405180910390f35b3480156107b357600080fd5b506107ce60048036038101906107c99190613989565b6127a6565b6040516107db9190613bab565b60405180910390f35b3480156107f057600080fd5b5061080b60048036038101906108069190613989565b6127bd565b60405161081891906139d8565b60405180910390f35b34801561082d57600080fd5b5061084860048036038101906108439190613d1c565b6127e0565b005b600063150b7a0260e01b9050949350505050565b610866612866565b61086e6128a7565b600061087c856004546127bd565b90506000604051806101600160405280600a5481526020018d73ffffffffffffffffffffffffffffffffffffffff1681526020013373ffffffffffffffffffffffffffffffffffffffff1681526020018a73ffffffffffffffffffffffffffffffffffffffff1681526020018981526020018873ffffffffffffffffffffffffffffffffffffffff168152602001878152602001868152602001838152602001428152602001858152509050600060096000600a54815260200190815260200160002060006101000a81548160ff021916908360028111156109615761096061411b565b5b02179055506000816101400151116109ae576040517f08c379a00000000000000000000000000000000000000000000000000000000081526004016109a590614302565b60405180910390fd5b60008160c00151116109f5576040517f08c379a00000000000000000000000000000000000000000000000000000000081526004016109ec9061436e565b60405180910390fd5b60008160e0015111610a3c576040517f08c379a0000000000000000000000000000000000000000000000000000000008152600401610a33906143da565b60405180910390fd5b600260008260a0015173ffffffffffffffffffffffffffffffffffffffff1673ffffffffffffffffffffffffffffffffffffffff16815260200190815260200160002060009054906101000a900460ff16610acc576040517f08c379a0000000000000000000000000000000000000000000000000000000008152600401610ac390614446565b60405180910390fd5b60036000826060015173ffffffffffffffffffffffffffffffffffffffff1673ffffffffffffffffffffffffffffffffffffffff16815260200190815260200160002060009054906101000a900460ff16610b5c576040517f08c379a0000000000000000000000000000000000000000000000000000000008152600401610b53906144b2565b60405180910390fd5b610bfe604051806101000160405280836020015173ffffffffffffffffffffffffffffffffffffffff1681526020018d8152602001836060015173ffffffffffffffffffffffffffffffffffffffff168152602001836080015181526020018360a0015173ffffffffffffffffffffffffffffffffffffffff1681526020018360c0015181526020018360e0015181526020018361014001518152508461276a565b610c3d576040517f08c379a0000000000000000000000000000000000000000000000000000000008152600401610c349061451e565b60405180910390fd5b610c4b81602001518c6128ed565b50610c5a81604001518b6128ed565b508060086000600a5481526020019081526020016000206000820151816000015560208201518160010160006101000a81548173ffffffffffffffffffffffffffffffffffffffff021916908373ffffffffffffffffffffffffffffffffffffffff16021790555060408201518160020160006101000a81548173ffffffffffffffffffffffffffffffffffffffff021916908373ffffffffffffffffffffffffffffffffffffffff16021790555060608201518160030160006101000a81548173ffffffffffffffffffffffffffffffffffffffff021916908373ffffffffffffffffffffffffffffffffffffffff1602179055506080820151816004015560a08201518160050160006101000a81548173ffffffffffffffffffffffffffffffffffffffff021916908373ffffffffffffffffffffffffffffffffffffffff16021790555060c0820151816006015560e082015181600701556101008201518160080155610120820151816009015561014082015181600a0155905050600a6000815480929190610dec9061456d565b9190505550600b6000815480929190610e049061456d565b9190505550806060015173ffffffffffffffffffffffffffffffffffffffff166342842e0e82602001513084608001516040518463ffffffff1660e01b8152600401610e52939291906145b5565b600060405180830381600087803b158015610e6c57600080fd5b505af1158015610e80573d6000803e3d6000fd5b50505050610ebd3382602001518360c001518460a0015173ffffffffffffffffffffffffffffffffffffffff16612a00909392919063ffffffff16565b7f16624b86027c9c3882f64d1df8ef53c3cdefcfb2ad1d4bd05664fd55462dbc3c816000015182602001518360400151846060015185608001518660a001518760c001518860e001518961010001518a61012001518b6101400151604051610f2f9b9a999897969594939291906141ad565b60405180910390a15050610f41612a82565b50505050505050505050565b60008183610f5b91906145ec565b905092915050565b610f6b612a8b565b610f73612b12565b565b6000610ff67fd56bf1d358279e757e6aea5b008b7959ccd4f4cc0b2d8431a8302eeda3c3d063836000015184602001518560400151866060015187608001518860a001518960c001518a60e00151604051602001610fdb99989796959493929190614620565b60405160208183030381529060405280519060200120612b74565b9050919050565b611005612a8b565b80600260008473ffffffffffffffffffffffffffffffffffffffff1673ffffffffffffffffffffffffffffffffffffffff16815260200190815260200160002060006101000a81548160ff0219169083151502179055505050565b60008060149054906101000a900460ff16905090565b60045481565b600080611088846110a2565b905061109984600001518285612b8e565b91505092915050565b60006111237f2bba54a8ef75811e5afb2765c321d9342113480bb272e2cf6a6f64e434ae36b5836000015184602001518560400151866060015187608001518860a001518960c001518a60e0015160405160200161110899989796959493929190614620565b60405160208183030381529060405280519060200120612b74565b9050919050565b600042905090565b61113a612a8b565b6111446000612c1e565b565b60026020528060005260406000206000915054906101000a900460ff1681565b60008061117385846127bd565b905080848661118291906145ec565b61118c91906145ec565b9150509392505050565b61119e612a8b565b806004819055507f0a6535e80fb8bd286f196b04bdc558c7dd8217326fcd9f04a9bf385b47ff4af4816040516111d491906139d8565b60405180910390a150565b6111e7612a8b565b6111ef612ce2565b565b600060608060008060006060611205612d45565b61120d612d80565b46306000801b600067ffffffffffffffff81111561122e5761122d61368a565b5b60405190808252806020026020018201604052801561125c5781602001602082028036833780820191505090505b507f0f00000000000000000000000000000000000000000000000000000000000000959493929190965096509650965096509650965090919293949596565b60036020528060005260406000206000915054906101000a900460ff1681565b60008060009054906101000a900473ffffffffffffffffffffffffffffffffffffffff16905090565b600a5481565b600b5481565b6112f8612a8b565b80600360008473ffffffffffffffffffffffffffffffffffffffff1673ffffffffffffffffffffffffffffffffffffffff16815260200190815260200160002060006101000a81548160ff0219169083151502179055505050565b61135b6128a7565b60006008600083815260200190815260200160002060405180610160016040529081600082015481526020016001820160009054906101000a900473ffffffffffffffffffffffffffffffffffffffff1673ffffffffffffffffffffffffffffffffffffffff1673ffffffffffffffffffffffffffffffffffffffff1681526020016002820160009054906101000a900473ffffffffffffffffffffffffffffffffffffffff1673ffffffffffffffffffffffffffffffffffffffff1673ffffffffffffffffffffffffffffffffffffffff1681526020016003820160009054906101000a900473ffffffffffffffffffffffffffffffffffffffff1673ffffffffffffffffffffffffffffffffffffffff1673ffffffffffffffffffffffffffffffffffffffff168152602001600482015481526020016005820160009054906101000a900473ffffffffffffffffffffffffffffffffffffffff1673ffffffffffffffffffffffffffffffffffffffff1673ffffffffffffffffffffffffffffffffffffffff16815260200160068201548152602001600782015481526020016008820154815260200160098201548152602001600a820154815250509050600060028111156115305761152f61411b565b5b6009600084815260200190815260200160002060009054906101000a900460ff1660028111156115635761156261411b565b5b146115a3576040517f08c379a000000000000000000000000000000000000000000000000000000000815260040161159a906146f9565b60405180910390fd5b3373ffffffffffffffffffffffffffffffffffffffff16816020015173ffffffffffffffffffffffffffffffffffffffff1614611615576040517f08c379a000000000000000000000000000000000000000000000000000000000815260040161160c90614765565b60405180910390fd5b6116298161012001518261014001516127a6565b15611669576040517f08c379a0000000000000000000000000000000000000000000000000000000008152600401611660906147d1565b60405180910390fd5b600061167d8260c001518360e00151612790565b90506116b882602001518360400151838560a0015173ffffffffffffffffffffffffffffffffffffffff16612a00909392919063ffffffff16565b6116f982602001516116c86112bb565b8461010001518560a0015173ffffffffffffffffffffffffffffffffffffffff16612a00909392919063ffffffff16565b816060015173ffffffffffffffffffffffffffffffffffffffff166342842e0e30846020015185608001516040518463ffffffff1660e01b8152600401611742939291906145b5565b600060405180830381600087803b15801561175c57600080fd5b505af1158015611770573d6000803e3d6000fd5b5050505060016009600085815260200190815260200160002060006101000a81548160ff021916908360028111156117ab576117aa61411b565b5b0217905550600b60008154809291906117c3906147f1565b91905055507f7cd7966cd6da551f98ac206793e3dcd5ddd6805b8e68e8a7af02eccbd0d42c9b826000015183602001518460400151856060015186608001518760a001518860c001518960e001518a61010001518b61012001518c610140015160405161183a9b9a999897969594939291906141ad565b60405180910390a1600860008481526020019081526020016000206000808201600090556001820160006101000a81549073ffffffffffffffffffffffffffffffffffffffff02191690556002820160006101000a81549073ffffffffffffffffffffffffffffffffffffffff02191690556003820160006101000a81549073ffffffffffffffffffffffffffffffffffffffff021916905560048201600090556005820160006101000a81549073ffffffffffffffffffffffffffffffffffffffff02191690556006820160009055600782016000905560088201600090556009820160009055600a82016000905550505050611936612a82565b50565b611941612866565b6119496128a7565b6000611957866004546127bd565b90506000604051806101600160405280600a5481526020013373ffffffffffffffffffffffffffffffffffffffff1681526020018d73ffffffffffffffffffffffffffffffffffffffff1681526020018b73ffffffffffffffffffffffffffffffffffffffff1681526020018a81526020018973ffffffffffffffffffffffffffffffffffffffff168152602001888152602001878152602001838152602001428152602001868152509050600060096000600a54815260200190815260200160002060006101000a81548160ff02191690836002811115611a3c57611a3b61411b565b5b0217905550600081610140015111611a89576040517f08c379a0000000000000000000000000000000000000000000000000000000008152600401611a8090614302565b60405180910390fd5b60008160c0015111611ad0576040517f08c379a0000000000000000000000000000000000000000000000000000000008152600401611ac79061436e565b60405180910390fd5b60008160e0015111611b17576040517f08c379a0000000000000000000000000000000000000000000000000000000008152600401611b0e906143da565b60405180910390fd5b600260008260a0015173ffffffffffffffffffffffffffffffffffffffff1673ffffffffffffffffffffffffffffffffffffffff16815260200190815260200160002060009054906101000a900460ff16611ba7576040517f08c379a0000000000000000000000000000000000000000000000000000000008152600401611b9e90614446565b60405180910390fd5b60036000826060015173ffffffffffffffffffffffffffffffffffffffff1673ffffffffffffffffffffffffffffffffffffffff16815260200190815260200160002060009054906101000a900460ff16611c37576040517f08c379a0000000000000000000000000000000000000000000000000000000008152600401611c2e906144b2565b60405180910390fd5b611c4581602001518e6128ed565b50611c5481604001518c6128ed565b50611cf7604051806101000160405280836020015173ffffffffffffffffffffffffffffffffffffffff1681526020018f8152602001836060015173ffffffffffffffffffffffffffffffffffffffff168152602001836080015181526020018360a0015173ffffffffffffffffffffffffffffffffffffffff1681526020018360c0015181526020018360e0015181526020018361014001518152508561276a565b611d36576040517f08c379a0000000000000000000000000000000000000000000000000000000008152600401611d2d9061451e565b60405180910390fd5b611dd8604051806101000160405280836040015173ffffffffffffffffffffffffffffffffffffffff1681526020018d8152602001836060015173ffffffffffffffffffffffffffffffffffffffff168152602001836080015181526020018360a0015173ffffffffffffffffffffffffffffffffffffffff1681526020018360c0015181526020018360e0015181526020018361014001518152508461107c565b611e17576040517f08c379a0000000000000000000000000000000000000000000000000000000008152600401611e0e90614866565b60405180910390fd5b8060086000600a5481526020019081526020016000206000820151816000015560208201518160010160006101000a81548173ffffffffffffffffffffffffffffffffffffffff021916908373ffffffffffffffffffffffffffffffffffffffff16021790555060408201518160020160006101000a81548173ffffffffffffffffffffffffffffffffffffffff021916908373ffffffffffffffffffffffffffffffffffffffff16021790555060608201518160030160006101000a81548173ffffffffffffffffffffffffffffffffffffffff021916908373ffffffffffffffffffffffffffffffffffffffff1602179055506080820151816004015560a08201518160050160006101000a81548173ffffffffffffffffffffffffffffffffffffffff021916908373ffffffffffffffffffffffffffffffffffffffff16021790555060c0820151816006015560e082015181600701556101008201518160080155610120820151816009015561014082015181600a0155905050600a6000815480929190611fa89061456d565b9190505550600b6000815480929190611fc09061456d565b9190505550806060015173ffffffffffffffffffffffffffffffffffffffff166342842e0e82602001513084608001516040518463ffffffff1660e01b815260040161200e939291906145b5565b600060405180830381600087803b15801561202857600080fd5b505af115801561203c573d6000803e3d6000fd5b5050505061207d816040015182602001518360c001518460a0015173ffffffffffffffffffffffffffffffffffffffff16612a00909392919063ffffffff16565b7f16624b86027c9c3882f64d1df8ef53c3cdefcfb2ad1d4bd05664fd55462dbc3c816000015182602001518360400151846060015185608001518660a001518760c001518860e001518961010001518a61012001518b61014001516040516120ef9b9a999897969594939291906141ad565b60405180910390a15050612101612a82565b5050505050505050505050565b61211833826128ed565b5050565b6121246128a7565b60006008600083815260200190815260200160002060405180610160016040529081600082015481526020016001820160009054906101000a900473ffffffffffffffffffffffffffffffffffffffff1673ffffffffffffffffffffffffffffffffffffffff1673ffffffffffffffffffffffffffffffffffffffff1681526020016002820160009054906101000a900473ffffffffffffffffffffffffffffffffffffffff1673ffffffffffffffffffffffffffffffffffffffff1673ffffffffffffffffffffffffffffffffffffffff1681526020016003820160009054906101000a900473ffffffffffffffffffffffffffffffffffffffff1673ffffffffffffffffffffffffffffffffffffffff1673ffffffffffffffffffffffffffffffffffffffff168152602001600482015481526020016005820160009054906101000a900473ffffffffffffffffffffffffffffffffffffffff1673ffffffffffffffffffffffffffffffffffffffff1673ffffffffffffffffffffffffffffffffffffffff16815260200160068201548152602001600782015481526020016008820154815260200160098201548152602001600a820154815250509050600060028111156122f9576122f861411b565b5b6009600084815260200190815260200160002060009054906101000a900460ff16600281111561232c5761232b61411b565b5b1461236c576040517f08c379a0000000000000000000000000000000000000000000000000000000008152600401612363906146f9565b60405180910390fd5b3373ffffffffffffffffffffffffffffffffffffffff16816040015173ffffffffffffffffffffffffffffffffffffffff16146123de576040517f08c379a00000000000000000000000000000000000000000000000000000000081526004016123d5906148f8565b60405180910390fd5b6123f28161012001518261014001516127a6565b612431576040517f08c379a000000000000000000000000000000000000000000000000000000000815260040161242890614964565b60405180910390fd5b806060015173ffffffffffffffffffffffffffffffffffffffff166342842e0e30836040015184608001516040518463ffffffff1660e01b815260040161247a939291906145b5565b600060405180830381600087803b15801561249457600080fd5b505af11580156124a8573d6000803e3d6000fd5b5050505060026009600084815260200190815260200160002060006101000a81548160ff021916908360028111156124e3576124e261411b565b5b0217905550600b60008154809291906124fb906147f1565b91905055507f7eeeeca4ce8edc45e4bcb18f80400500950aef84eb4e827a2338c10147d37fcc816000015182602001518360400151846060015185608001518660a001518760c001518860e001518961010001518a61012001518b61014001516040516125729b9a999897969594939291906141ad565b60405180910390a1600860008381526020019081526020016000206000808201600090556001820160006101000a81549073ffffffffffffffffffffffffffffffffffffffff02191690556002820160006101000a81549073ffffffffffffffffffffffffffffffffffffffff02191690556003820160006101000a81549073ffffffffffffffffffffffffffffffffffffffff021916905560048201600090556005820160006101000a81549073ffffffffffffffffffffffffffffffffffffffff02191690556006820160009055600782016000905560088201600090556009820160009055600a82016000905550505061266d612a82565b50565b60096020528060005260406000206000915054906101000a900460ff1681565b60086020528060005260406000206000915090508060000154908060010160009054906101000a900473ffffffffffffffffffffffffffffffffffffffff16908060020160009054906101000a900473ffffffffffffffffffffffffffffffffffffffff16908060030160009054906101000a900473ffffffffffffffffffffffffffffffffffffffff16908060040154908060050160009054906101000a900473ffffffffffffffffffffffffffffffffffffffff169080600601549080600701549080600801549080600901549080600a015490508b565b60008061277684610f75565b905061278784600001518285612b8e565b91505092915050565b6000818361279e91906145ec565b905092915050565b60006127b28383610f4d565b421015905092915050565b600061271082846127ce9190614984565b6127d891906149f5565b905092915050565b6127e8612a8b565b600073ffffffffffffffffffffffffffffffffffffffff168173ffffffffffffffffffffffffffffffffffffffff160361285a5760006040517f1e4fbdf70000000000000000000000000000000000000000000000000000000081526004016128519190613fd4565b60405180910390fd5b61286381612c1e565b50565b61286e611060565b156128a5576040517fd93c066500000000000000000000000000000000000000000000000000000000815260040160405180910390fd5b565b6002600154036128e3576040517f3ee5aeb500000000000000000000000000000000000000000000000000000000815260040160405180910390fd5b6002600181905550565b6000600760008473ffffffffffffffffffffffffffffffffffffffff1673ffffffffffffffffffffffffffffffffffffffff168152602001908152602001600020600083815260200190815260200160002060009054906101000a900460ff161561298d576040517f08c379a000000000000000000000000000000000000000000000000000000000815260040161298490614a72565b60405180910390fd5b6001600760008573ffffffffffffffffffffffffffffffffffffffff1673ffffffffffffffffffffffffffffffffffffffff168152602001908152602001600020600084815260200190815260200160002060006101000a81548160ff0219169083151502179055506001905092915050565b612a7c848573ffffffffffffffffffffffffffffffffffffffff166323b872dd868686604051602401612a35939291906145b5565b604051602081830303815290604052915060e01b6020820180517bffffffffffffffffffffffffffffffffffffffffffffffffffffffff8381831617835250505050612dbb565b50505050565b60018081905550565b612a93612e52565b73ffffffffffffffffffffffffffffffffffffffff16612ab16112bb565b73ffffffffffffffffffffffffffffffffffffffff1614612b1057612ad4612e52565b6040517f118cdaa7000000000000000000000000000000000000000000000000000000008152600401612b079190613fd4565b60405180910390fd5b565b612b1a612e5a565b60008060146101000a81548160ff0219169083151502179055507f5db9ee0a495bf2e6ff9c91a7834c1ba4fdd244a5e8aa4e537bd38aeae4b073aa612b5d612e52565b604051612b6a9190613fd4565b60405180910390a1565b6000612b87612b81612e9a565b83612f51565b9050919050565b6000806000612b9d8585612f92565b509150915060006003811115612bb657612bb561411b565b5b816003811115612bc957612bc861411b565b5b148015612c0157508573ffffffffffffffffffffffffffffffffffffffff168273ffffffffffffffffffffffffffffffffffffffff16145b80612c135750612c12868686612fee565b5b925050509392505050565b60008060009054906101000a900473ffffffffffffffffffffffffffffffffffffffff169050816000806101000a81548173ffffffffffffffffffffffffffffffffffffffff021916908373ffffffffffffffffffffffffffffffffffffffff1602179055508173ffffffffffffffffffffffffffffffffffffffff168173ffffffffffffffffffffffffffffffffffffffff167f8be0079c531659141344cd1fd0a4f28419497f9722a3daafe3b4186f6b6457e060405160405180910390a35050565b612cea612866565b6001600060146101000a81548160ff0219169083151502179055507f62e78cea01bee320cd4e420270b5ea74000d11b0c9f74754ebdbfc544b05a258612d2e612e52565b604051612d3b9190613fd4565b60405180910390a1565b6060612d7b60057f000000000000000000000000000000000000000000000000000000000000000061311290919063ffffffff16565b905090565b6060612db660067f000000000000000000000000000000000000000000000000000000000000000061311290919063ffffffff16565b905090565b6000612de6828473ffffffffffffffffffffffffffffffffffffffff166131c290919063ffffffff16565b90506000815114158015612e0b575080806020019051810190612e099190614aa7565b155b15612e4d57826040517f5274afe7000000000000000000000000000000000000000000000000000000008152600401612e449190613fd4565b60405180910390fd5b505050565b600033905090565b612e62611060565b612e98576040517f8dfc202b00000000000000000000000000000000000000000000000000000000815260040160405180910390fd5b565b60007f000000000000000000000000000000000000000000000000000000000000000073ffffffffffffffffffffffffffffffffffffffff163073ffffffffffffffffffffffffffffffffffffffff16148015612f1657507f000000000000000000000000000000000000000000000000000000000000000046145b15612f43577f00000000000000000000000000000000000000000000000000000000000000009050612f4e565b612f4b6131d8565b90505b90565b60006040517f190100000000000000000000000000000000000000000000000000000000000081528360028201528260228201526042812091505092915050565b60008060006041845103612fd75760008060006020870151925060408701519150606087015160001a9050612fc98882858561326e565b955095509550505050612fe7565b60006002855160001b9250925092505b9250925092565b60008060008573ffffffffffffffffffffffffffffffffffffffff16858560405160240161301d929190614b29565b604051602081830303815290604052631626ba7e60e01b6020820180517bffffffffffffffffffffffffffffffffffffffffffffffffffffffff838183161783525050505060405161306f9190614b95565b600060405180830381855afa9150503d80600081146130aa576040519150601f19603f3d011682016040523d82523d6000602084013e6130af565b606091505b50915091508180156130c357506020815110155b80156131075750631626ba7e60e01b7bffffffffffffffffffffffffffffffffffffffffffffffffffffffff1916818060200190518101906131059190614bd8565b145b925050509392505050565b606060ff60001b831461312f5761312883613362565b90506131bc565b81805461313b90614c34565b80601f016020809104026020016040519081016040528092919081815260200182805461316790614c34565b80156131b45780601f10613189576101008083540402835291602001916131b4565b820191906000526020600020905b81548152906001019060200180831161319757829003601f168201915b505050505090505b92915050565b60606131d0838360006133d6565b905092915050565b60007f8b73c3c69bb8fe3d512ecc4cf759cc79239f7b179b0ffacaa9a75d522b39400f7f00000000000000000000000000000000000000000000000000000000000000007f00000000000000000000000000000000000000000000000000000000000000004630604051602001613253959493929190614c65565b60405160208183030381529060405280519060200120905090565b60008060007f7fffffffffffffffffffffffffffffff5d576e7357a4501ddfe92f46681b20a08460001c11156132ae576000600385925092509250613358565b6000600188888888604051600081526020016040526040516132d39493929190614cd4565b6020604051602081039080840390855afa1580156132f5573d6000803e3d6000fd5b505050602060405103519050600073ffffffffffffffffffffffffffffffffffffffff168173ffffffffffffffffffffffffffffffffffffffff160361334957600060016000801b93509350935050613358565b8060008060001b935093509350505b9450945094915050565b6060600061336f836134a3565b90506000602067ffffffffffffffff81111561338e5761338d61368a565b5b6040519080825280601f01601f1916602001820160405280156133c05781602001600182028036833780820191505090505b5090508181528360208201528092505050919050565b60608147101561341d57306040517fcd7860590000000000000000000000000000000000000000000000000000000081526004016134149190613fd4565b60405180910390fd5b6000808573ffffffffffffffffffffffffffffffffffffffff1684866040516134469190614b95565b60006040518083038185875af1925050503d8060008114613483576040519150601f19603f3d011682016040523d82523d6000602084013e613488565b606091505b50915091506134988683836134f3565b925050509392505050565b60008060ff8360001c169050601f8111156134ea576040517fb3512b0c00000000000000000000000000000000000000000000000000000000815260040160405180910390fd5b80915050919050565b6060826135085761350382613582565b61357a565b60008251148015613530575060008473ffffffffffffffffffffffffffffffffffffffff163b145b1561357257836040517f9996b3150000000000000000000000000000000000000000000000000000000081526004016135699190613fd4565b60405180910390fd5b81905061357b565b5b9392505050565b6000815111156135955780518082602001fd5b6040517f1425ea4200000000000000000000000000000000000000000000000000000000815260040160405180910390fd5b6000604051905090565b600080fd5b600080fd5b600073ffffffffffffffffffffffffffffffffffffffff82169050919050565b6000613606826135db565b9050919050565b613616816135fb565b811461362157600080fd5b50565b6000813590506136338161360d565b92915050565b6000819050919050565b61364c81613639565b811461365757600080fd5b50565b60008135905061366981613643565b92915050565b600080fd5b600080fd5b6000601f19601f8301169050919050565b7f4e487b7100000000000000000000000000000000000000000000000000000000600052604160045260246000fd5b6136c282613679565b810181811067ffffffffffffffff821117156136e1576136e061368a565b5b80604052505050565b60006136f46135c7565b905061370082826136b9565b919050565b600067ffffffffffffffff8211156137205761371f61368a565b5b61372982613679565b9050602081019050919050565b82818337600083830152505050565b600061375861375384613705565b6136ea565b90508281526020810184848401111561377457613773613674565b5b61377f848285613736565b509392505050565b600082601f83011261379c5761379b61366f565b5b81356137ac848260208601613745565b91505092915050565b600080600080608085870312156137cf576137ce6135d1565b5b60006137dd87828801613624565b94505060206137ee87828801613624565b93505060406137ff8782880161365a565b925050606085013567ffffffffffffffff8111156138205761381f6135d6565b5b61382c87828801613787565b91505092959194509250565b60007fffffffff0000000000000000000000000000000000000000000000000000000082169050919050565b61386d81613838565b82525050565b60006020820190506138886000830184613864565b92915050565b6000806000806000806000806000806101408b8d0312156138b2576138b16135d1565b5b60006138c08d828e01613624565b9a505060206138d18d828e0161365a565b99505060406138e28d828e0161365a565b98505060606138f38d828e01613624565b97505060806139048d828e0161365a565b96505060a06139158d828e01613624565b95505060c06139268d828e0161365a565b94505060e06139378d828e0161365a565b9350506101006139498d828e0161365a565b9250506101208b013567ffffffffffffffff81111561396b5761396a6135d6565b5b6139778d828e01613787565b9150509295989b9194979a5092959850565b600080604083850312156139a05761399f6135d1565b5b60006139ae8582860161365a565b92505060206139bf8582860161365a565b9150509250929050565b6139d281613639565b82525050565b60006020820190506139ed60008301846139c9565b92915050565b600080fd5b60006101008284031215613a0f57613a0e6139f3565b5b613a1a6101006136ea565b90506000613a2a84828501613624565b6000830152506020613a3e8482850161365a565b6020830152506040613a5284828501613624565b6040830152506060613a668482850161365a565b6060830152506080613a7a84828501613624565b60808301525060a0613a8e8482850161365a565b60a08301525060c0613aa28482850161365a565b60c08301525060e0613ab68482850161365a565b60e08301525092915050565b60006101008284031215613ad957613ad86135d1565b5b6000613ae7848285016139f8565b91505092915050565b6000819050919050565b613b0381613af0565b82525050565b6000602082019050613b1e6000830184613afa565b92915050565b60008115159050919050565b613b3981613b24565b8114613b4457600080fd5b50565b600081359050613b5681613b30565b92915050565b60008060408385031215613b7357613b726135d1565b5b6000613b8185828601613624565b9250506020613b9285828601613b47565b9150509250929050565b613ba581613b24565b82525050565b6000602082019050613bc06000830184613b9c565b92915050565b60006101008284031215613bdd57613bdc6139f3565b5b613be86101006136ea565b90506000613bf884828501613624565b6000830152506020613c0c8482850161365a565b6020830152506040613c2084828501613624565b6040830152506060613c348482850161365a565b6060830152506080613c4884828501613624565b60808301525060a0613c5c8482850161365a565b60a08301525060c0613c708482850161365a565b60c08301525060e0613c848482850161365a565b60e08301525092915050565b6000806101208385031215613ca857613ca76135d1565b5b6000613cb685828601613bc6565b92505061010083013567ffffffffffffffff811115613cd857613cd76135d6565b5b613ce485828601613787565b9150509250929050565b60006101008284031215613d0557613d046135d1565b5b6000613d1384828501613bc6565b91505092915050565b600060208284031215613d3257613d316135d1565b5b6000613d4084828501613624565b91505092915050565b600080600060608486031215613d6257613d616135d1565b5b6000613d708682870161365a565b9350506020613d818682870161365a565b9250506040613d928682870161365a565b9150509250925092565b600060208284031215613db257613db16135d1565b5b6000613dc08482850161365a565b91505092915050565b60007fff0000000000000000000000000000000000000000000000000000000000000082169050919050565b613dfe81613dc9565b82525050565b600081519050919050565b600082825260208201905092915050565b60005b83811015613e3e578082015181840152602081019050613e23565b60008484015250505050565b6000613e5582613e04565b613e5f8185613e0f565b9350613e6f818560208601613e20565b613e7881613679565b840191505092915050565b613e8c816135fb565b82525050565b600081519050919050565b600082825260208201905092915050565b6000819050602082019050919050565b613ec781613639565b82525050565b6000613ed98383613ebe565b60208301905092915050565b6000602082019050919050565b6000613efd82613e92565b613f078185613e9d565b9350613f1283613eae565b8060005b83811015613f43578151613f2a8882613ecd565b9750613f3583613ee5565b925050600181019050613f16565b5085935050505092915050565b600060e082019050613f65600083018a613df5565b8181036020830152613f778189613e4a565b90508181036040830152613f8b8188613e4a565b9050613f9a60608301876139c9565b613fa76080830186613e83565b613fb460a0830185613afa565b81810360c0830152613fc68184613ef2565b905098975050505050505050565b6000602082019050613fe96000830184613e83565b92915050565b60008060008060008060008060008060006101608c8e031215614015576140146135d1565b5b60006140238e828f0161365a565b9b505060206140348e828f01613624565b9a505060406140458e828f0161365a565b99505060606140568e828f01613624565b98505060806140678e828f0161365a565b97505060a06140788e828f01613624565b96505060c06140898e828f0161365a565b95505060e061409a8e828f0161365a565b9450506101006140ac8e828f0161365a565b9350506101208c013567ffffffffffffffff8111156140ce576140cd6135d6565b5b6140da8e828f01613787565b9250506101408c013567ffffffffffffffff8111156140fc576140fb6135d6565b5b6141088e828f01613787565b9150509295989b509295989b9093969950565b7f4e487b7100000000000000000000000000000000000000000000000000000000600052602160045260246000fd5b6003811061415b5761415a61411b565b5b50565b600081905061416c8261414a565b919050565b600061417c8261415e565b9050919050565b61418c81614171565b82525050565b60006020820190506141a76000830184614183565b92915050565b6000610160820190506141c3600083018e6139c9565b6141d0602083018d613e83565b6141dd604083018c613e83565b6141ea606083018b613e83565b6141f7608083018a6139c9565b61420460a0830189613e83565b61421160c08301886139c9565b61421e60e08301876139c9565b61422c6101008301866139c9565b61423a6101208301856139c9565b6142486101408301846139c9565b9c9b505050505050505050505050565b60008061012083850312156142705761426f6135d1565b5b600061427e858286016139f8565b92505061010083013567ffffffffffffffff8111156142a05761429f6135d6565b5b6142ac85828601613787565b9150509250929050565b7f496e76616c6964206c6f616e206475726174696f6e0000000000000000000000600082015250565b60006142ec601583613e0f565b91506142f7826142b6565b602082019050919050565b6000602082019050818103600083015261431b816142df565b9050919050565b7f496e76616c6964206c6f616e20616d6f756e7400000000000000000000000000600082015250565b6000614358601383613e0f565b915061436382614322565b602082019050919050565b600060208201905081810360008301526143878161434b565b9050919050565b7f496e76616c696420696e74657265737420666565000000000000000000000000600082015250565b60006143c4601483613e0f565b91506143cf8261438e565b602082019050919050565b600060208201905081810360008301526143f3816143b7565b9050919050565b7f546f6b656e206e6f7420737570706f7274656400000000000000000000000000600082015250565b6000614430601383613e0f565b915061443b826143fa565b602082019050919050565b6000602082019050818103600083015261445f81614423565b9050919050565b7f4e4654206e6f7420737570706f72746564000000000000000000000000000000600082015250565b600061449c601183613e0f565b91506144a782614466565b602082019050919050565b600060208201905081810360008301526144cb8161448f565b9050919050565b7f496e76616c696420626f72726f776572207369676e6174757265000000000000600082015250565b6000614508601a83613e0f565b9150614513826144d2565b602082019050919050565b60006020820190508181036000830152614537816144fb565b9050919050565b7f4e487b7100000000000000000000000000000000000000000000000000000000600052601160045260246000fd5b600061457882613639565b91507fffffffffffffffffffffffffffffffffffffffffffffffffffffffffffffffff82036145aa576145a961453e565b5b600182019050919050565b60006060820190506145ca6000830186613e83565b6145d76020830185613e83565b6145e460408301846139c9565b949350505050565b60006145f782613639565b915061460283613639565b925082820190508082111561461a5761461961453e565b5b92915050565b600061012082019050614636600083018c613afa565b614643602083018b613e83565b614650604083018a6139c9565b61465d6060830189613e83565b61466a60808301886139c9565b61467760a0830187613e83565b61468460c08301866139c9565b61469160e08301856139c9565b61469f6101008301846139c9565b9a9950505050505050505050565b7f4c6f616e206973206e6f74206163746976650000000000000000000000000000600082015250565b60006146e3601283613e0f565b91506146ee826146ad565b602082019050919050565b60006020820190508181036000830152614712816146d6565b9050919050565b7f4f6e6c7920626f72726f7765722063616e20726570617920746865206c6f616e600082015250565b600061474f602083613e0f565b915061475a82614719565b602082019050919050565b6000602082019050818103600083015261477e81614742565b9050919050565b7f4c6f616e2074696d65206973206f766572000000000000000000000000000000600082015250565b60006147bb601183613e0f565b91506147c682614785565b602082019050919050565b600060208201905081810360008301526147ea816147ae565b9050919050565b60006147fc82613639565b91506000820361480f5761480e61453e565b5b600182039050919050565b7f496e76616c6964206c656e646572207369676e61747572650000000000000000600082015250565b6000614850601883613e0f565b915061485b8261481a565b602082019050919050565b6000602082019050818103600083015261487f81614843565b9050919050565b7f4f6e6c79206c656e6465722063616e206c697175696461746520746865206c6f60008201527f616e000000000000000000000000000000000000000000000000000000000000602082015250565b60006148e2602283613e0f565b91506148ed82614886565b604082019050919050565b60006020820190508181036000830152614911816148d5565b9050919050565b7f4c6f616e2074696d65206973206e6f74206f7665720000000000000000000000600082015250565b600061494e601583613e0f565b915061495982614918565b602082019050919050565b6000602082019050818103600083015261497d81614941565b9050919050565b600061498f82613639565b915061499a83613639565b92508282026149a881613639565b915082820484148315176149bf576149be61453e565b5b5092915050565b7f4e487b7100000000000000000000000000000000000000000000000000000000600052601260045260246000fd5b6000614a0082613639565b9150614a0b83613639565b925082614a1b57614a1a6149c6565b5b828204905092915050565b7f4e6f6e636520616c726561647920757365640000000000000000000000000000600082015250565b6000614a5c601283613e0f565b9150614a6782614a26565b602082019050919050565b60006020820190508181036000830152614a8b81614a4f565b9050919050565b600081519050614aa181613b30565b92915050565b600060208284031215614abd57614abc6135d1565b5b6000614acb84828501614a92565b91505092915050565b600081519050919050565b600082825260208201905092915050565b6000614afb82614ad4565b614b058185614adf565b9350614b15818560208601613e20565b614b1e81613679565b840191505092915050565b6000604082019050614b3e6000830185613afa565b8181036020830152614b508184614af0565b90509392505050565b600081905092915050565b6000614b6f82614ad4565b614b798185614b59565b9350614b89818560208601613e20565b80840191505092915050565b6000614ba18284614b64565b915081905092915050565b614bb581613af0565b8114614bc057600080fd5b50565b600081519050614bd281614bac565b92915050565b600060208284031215614bee57614bed6135d1565b5b6000614bfc84828501614bc3565b91505092915050565b7f4e487b7100000000000000000000000000000000000000000000000000000000600052602260045260246000fd5b60006002820490506001821680614c4c57607f821691505b602082108103614c5f57614c5e614c05565b5b50919050565b600060a082019050614c7a6000830188613afa565b614c876020830187613afa565b614c946040830186613afa565b614ca160608301856139c9565b614cae6080830184613e83565b9695505050505050565b600060ff82169050919050565b614cce81614cb8565b82525050565b6000608082019050614ce96000830187613afa565b614cf66020830186614cc5565b614d036040830185613afa565b614d106060830184613afa565b9594505050505056fea2646970667358221220c4ef635a5afcdefede9d8acf4b8ea0e28504e6e52645b57281c86bf8f500034664736f6c63430008140033",
    "linkReferences": {},
    "deployedLinkReferences": {}
}